{
  "_format": "hh-sol-artifact-1",
  "contractName": "Escrow",
  "sourceName": "contracts/Escrow.sol",
  "abi": [
    {
      "inputs": [
        {
          "internalType": "address",
          "name": "_arbiter",
          "type": "address"
        },
        {
          "internalType": "address",
          "name": "_beneficiary",
          "type": "address"
        }
      ],
      "stateMutability": "payable",
      "type": "constructor"
    },
    {
      "anonymous": false,
      "inputs": [
        {
          "indexed": false,
          "internalType": "uint256",
          "name": "",
          "type": "uint256"
        }
      ],
      "name": "Approved",
      "type": "event"
    },
    {
      "inputs": [],
      "name": "approve",
      "outputs": [],
      "stateMutability": "nonpayable",
      "type": "function"
    },
    {
      "inputs": [],
      "name": "arbiter",
      "outputs": [
        {
          "internalType": "address",
          "name": "",
          "type": "address"
        }
      ],
      "stateMutability": "view",
      "type": "function"
    },
    {
      "inputs": [],
      "name": "beneficiary",
      "outputs": [
        {
          "internalType": "address",
          "name": "",
          "type": "address"
        }
      ],
      "stateMutability": "view",
      "type": "function"
    },
    {
      "inputs": [],
      "name": "depositor",
      "outputs": [
        {
          "internalType": "address",
          "name": "",
          "type": "address"
        }
      ],
      "stateMutability": "view",
      "type": "function"
    },
    {
      "inputs": [],
      "name": "isApproved",
      "outputs": [
        {
          "internalType": "bool",
          "name": "",
          "type": "bool"
        }
      ],
      "stateMutability": "view",
      "type": "function"
    }
  ],
  "bytecode": "0x60806040526040516108e43803806108e4833981810160405281019061002591906101cd565b816000806101000a81548173ffffffffffffffffffffffffffffffffffffffff021916908373ffffffffffffffffffffffffffffffffffffffff16021790555080600160006101000a81548173ffffffffffffffffffffffffffffffffffffffff021916908373ffffffffffffffffffffffffffffffffffffffff16021790555033600260006101000a81548173ffffffffffffffffffffffffffffffffffffffff021916908373ffffffffffffffffffffffffffffffffffffffff16021790555034600260009054906101000a900473ffffffffffffffffffffffffffffffffffffffff1673ffffffffffffffffffffffffffffffffffffffff16311015610163576040517f08c379a000000000000000000000000000000000000000000000000000000000815260040161015a9061026a565b60405180910390fd5b505061028a565b600080fd5b600073ffffffffffffffffffffffffffffffffffffffff82169050919050565b600061019a8261016f565b9050919050565b6101aa8161018f565b81146101b557600080fd5b50565b6000815190506101c7816101a1565b92915050565b600080604083850312156101e4576101e361016a565b5b60006101f2858286016101b8565b9250506020610203858286016101b8565b9150509250929050565b600082825260208201905092915050565b7f496e73756666696369656e742062616c616e636520666f72206465706f736974600082015250565b600061025460208361020d565b915061025f8261021e565b602082019050919050565b6000602082019050818103600083015261028381610247565b9050919050565b61064b806102996000396000f3fe608060405234801561001057600080fd5b50600436106100575760003560e01c806312424e3f1461005c57806328f371aa1461006657806338af3eed14610084578063c7c4ff46146100a2578063fe25e00a146100c0575b600080fd5b6100646100de565b005b61006e6102e5565b60405161007b9190610383565b60405180910390f35b61008c6102f8565b60405161009991906103df565b60405180910390f35b6100aa61031e565b6040516100b791906103df565b60405180910390f35b6100c8610344565b6040516100d591906103df565b60405180910390f35b600260149054906101000a900460ff161561012e576040517f08c379a00000000000000000000000000000000000000000000000000000000081526004016101259061047d565b60405180910390fd5b60008054906101000a900473ffffffffffffffffffffffffffffffffffffffff1673ffffffffffffffffffffffffffffffffffffffff163373ffffffffffffffffffffffffffffffffffffffff16146101bc576040517f08c379a00000000000000000000000000000000000000000000000000000000081526004016101b39061050f565b60405180910390fd5b60004790506000600160009054906101000a900473ffffffffffffffffffffffffffffffffffffffff1673ffffffffffffffffffffffffffffffffffffffff168260405161020990610560565b60006040518083038185875af1925050503d8060008114610246576040519150601f19603f3d011682016040523d82523d6000602084013e61024b565b606091505b505090508061028f576040517f08c379a0000000000000000000000000000000000000000000000000000000008152600401610286906105c1565b60405180910390fd5b7f3ad93af63cb7967b23e4fb500b7d7d28b07516325dcf341f88bebf959d82c1cb826040516102be91906105fa565b60405180910390a16001600260146101000a81548160ff0219169083151502179055505050565b600260149054906101000a900460ff1681565b600160009054906101000a900473ffffffffffffffffffffffffffffffffffffffff1681565b600260009054906101000a900473ffffffffffffffffffffffffffffffffffffffff1681565b60008054906101000a900473ffffffffffffffffffffffffffffffffffffffff1681565b60008115159050919050565b61037d81610368565b82525050565b60006020820190506103986000830184610374565b92915050565b600073ffffffffffffffffffffffffffffffffffffffff82169050919050565b60006103c98261039e565b9050919050565b6103d9816103be565b82525050565b60006020820190506103f460008301846103d0565b92915050565b600082825260208201905092915050565b7f5468697320636f6e74726163742063616e206f6e6c7920626520617070726f7660008201527f6564206f6e636521000000000000000000000000000000000000000000000000602082015250565b60006104676028836103fa565b91506104728261040b565b604082019050919050565b600060208201905081810360008301526104968161045a565b9050919050565b7f4f6e6c792074686520617262697465722063616e20617070726f76652074686960008201527f73207472616e73616374696f6e21000000000000000000000000000000000000602082015250565b60006104f9602e836103fa565b91506105048261049d565b604082019050919050565b60006020820190508181036000830152610528816104ec565b9050919050565b600081905092915050565b50565b600061054a60008361052f565b91506105558261053a565b600082019050919050565b600061056b8261053d565b9150819050919050565b7f4661696c656420746f2073656e64204574686572000000000000000000000000600082015250565b60006105ab6014836103fa565b91506105b682610575565b602082019050919050565b600060208201905081810360008301526105da8161059e565b9050919050565b6000819050919050565b6105f4816105e1565b82525050565b600060208201905061060f60008301846105eb565b9291505056fea2646970667358221220ac14417ea8abe927ee2795453f1a5454343e35af5140fc74b82646ee155e1cf964736f6c63430008180033",
  "linkReferences": {},
  "deployedLinkReferences": {}
}